S013000047616D65426F69205041442E7372656388
S1130000600A0020812D00007D2D00007D2D000060
S113001000000000000000000000000000000000DC
S11300200000000000000000000000007D2D000022
S113003000000000000000007D2D0000652E00007F
S11300407D2D00007D2D00007D2D00007D2D000004
S11300507D0D00007D2D00007D2D0000FD28000099
S11300607D2D00007D2D00007D2D00007D2D0000E4
S11300707D2D00007D2D00007D2D00007D2D0000D4
S11300807D2D00007D2D00007D2D000010B5064C57
S11300902378002B07D1054B002B02D0044800E045
S11300A000BF0123237010BDE00000200000000009
S11300B030340000084B10B5002B03D00749084822
S11300C000E000BF07480368002B00D110BD064BB9
S11300D0002BFBD09847F9E700000000E400002063
S11300E0303400003034000000000000802252024E
S11300F0014B5A617047C0460044004180225202BD
S1130100014B9A617047C0460044004170477047F4
S113011080225202014B5A617047C046004400419C
S1130120F8B5CE46474680B5684B1B78002B0AD0FD
S1130130FA218900664B984789B2002949D1802267
S11301405202644B5A61644B1B780133DBB2272B98
S113015048D90022604B1A705E4A136A116A8C46B1
S1130160116A8846116A106A20240440156A8020A6
S113017040000540106A40263040126A403616405E
S11301809B08012217009F43FB0099466746FF081E
S1130190BC46170063469F43BB004F461F433B00CA
S11301A009095140012739400B4341464F0ABA43DC
S11301B052001343494A1370002C58D0002D00D12B
S11301C075E0002855D0002E53D00F21444A1170F9
S11301D04FE0FA235B009942B5D1802252023D4B95
S11301E09A61B0E73C4A13702FE0002843D0002EF8
S11301F05FD001213A4A11705BE0002E0ED003213A
S1130200374A1170002C3FD1002D0BD0002809D0A3
S1130210002E07D00021324A117003E0002D3FD197
S1130220002C16D1002805D0002E03D1002C01D0BB
S1130230002D16D18021C903264AD16129480370B3
S1130240274B1B784370284B98470CBC9046994623
S1130250F8BD0028E8D0002EE8D00221204A117011
S1130260E8E70028E6D006211D4A1170E2E7002DD8
S1130270BBD000281DD1002EC4D1002C1DD0002DD0
S113028002D00521164A1170002DE2D00028CBD1EE
S1130290002ECFD00421124A1170CBE7002DD8D004
S11302A00028C1D1002CC5D0002DF1D1C2E700280F
S11302B0A3D0002EA6D1002CF0D1002DB0D0002860
S11302C0EED00721064A1170EAE7C046000000207C
S11302D05531000000440041FD000020FC000020D6
S11302E0FE000020000100203D0400000378312BB3
S11302F006D04378312B02D10122074B1A70704784
S11303004378312BFBD10022034B1A708022520216
S1130310024B5A61F3E7C04600000020004400414C
S1130320002070470B4B5B881A0A0020032A00D078
S11303307047FC321A42FBD1064BDB88042BF7D101
S1130340044B054A9A60054A1A6104229A810130D5
S1130350EEE7C0463C0300200C0100201D04000011
S11303600122014B1A7070470201002010B582B0BF
S1130370044B00930823044A00210220034CA047A5
S113038002B010BDC903000014010020C91E000002
S113039010B50023074A1370074A13700122074B54
S11303A01A70074B9847002800D110BD054B984799
S11303B0FBE7C046080100200401002002010020E0
S11303C06D030000FD2F000010B5002803D108299B
S11303D002D0034B984710BD0248034B9847F8E7F7
S11303E06D03000014010020ED02000010B5014B64
S11303F0984710BD0D30000010B5034B034A044963
S11304000448054CA04710BD250300001800002037
S11304100401002008010020BD04000010B5044BB5
S11304209B89042B00D010BD0248034B9847FAE780
S11304303C0300200C0100201930000030B585B0C9
S11304400100184B1878002801D105B030BDEFF336
S113045010835A425341039372B6BFF35F8F002354
S1130460114A1370039D114C238002222000104B6B
S11304709847104B009302232200002181200E4C48
S1130480A04701235840074B1870002D05D00122C6
S1130490054B1A70BFF35F8F62B6024B18780123C5
S11304A05840D2E702010020DF00002010010020A4
S11304B07D33000061030000C91E000070B5050013
S11304C014003B4A127850B2002805DB6024224015
S11304D00020202A4FD070BD6020024003D1344850
S11304E0407806280DD00020202AF4D1304A5278D2
S11304F0022A34D0032A38D00020012AEBD19847AD
S1130500E9E72C4B98470300827A0020212AE2D1A4
S1130510274A5288120A212A13D0D97B00209142FB
S1130520D9D1234A9460197C09331B7A1B020B43EB
S1130530D088191C9BB2834200D9011C91810120EF
S1130540C9E71B4A1900093191605B7AD088191CEC
S11305509BB2834200D9011C91810120BBE7144B5B
S11305609D6001229A810120B5E7114B9960012217
S11305709A810120AFE70E4A52780A2A06D00B2A44
S11305800AD00020092AA6D19847A4E7084B5B8823
S11305901B0A2B7001209EE7054BDB880020002BF3
S11305A000D098E7024B5B880B70013093E7C0469C
S11305B03C0300205507000010B5114B1B681A6856
S11305C09478D3781B022343D2180378C01890423E
S11305D010D24378042B0FD08B420AD00378C01872
S11305E0904205D24378042B08D08B42F6D100E028
S11305F0002010BD0020FCE70020FAE70020F8E707
S11306002801002010B5034B5B887F201840024B63
S1130610984710BD3C030020A120000070B5194B81
S11306201B780022002B29D0174B1B681B681C79F0
S1130630844223D9154A13609A78DC78240214433F
S11306401C19A3421CD20025012607E00F4A13609F
S11306500FE01A789B183500A3420CD25A78042A6A
S1130660F7D19A788242F4D1DA788A42F1D1002D16
S1130670ECD1012202E0054A13600022100070BD93
S11306800022FBE724010020280100202C01002087
S1130690F0B5C64600B504000021134B9847051E6B
S11306A003D1280004BC9046F0BD104B1B685B6866
S11306B0A200D3589846DB689847010020000A4BF3
S11306C09847051EEDD00A4B1C680A4E0A4F0521B7
S11306D02000B047041E02D08078B847F7E74346AD
S11306E05B689847DDE7C0461D060000280100202E
S11306F02C010020B9050000E11B0000F8B505003D
S11307000F4B9847002819D00E4B1C680E4E0F4F04
S113071005212000B047041E09D003794279120252
S11307201A43C1788078B8470028F1D106E0084B15
S11307301B685B68AD00EB581B689847F8BDC04662
S11307401D0600002C010020B9050000391C000022
S113075028010020014B18687047C0462C01002076
S113076010B5014B984710BD7121000070B5124BB4
S11307701B78002B11D0114B1B681B681B79002BB5
S11307800BD000240E4E0D4D2000B0470134E4B2CE
S11307902B681B681B79A342F6D80022064B1A70FB
S11307A0084B1B889B0703D40022064B1A8070BD9C
S11307B0054B9847F8E7C046240100202801002093
S11307C0910600001C010020F12F000010B5024B1F
S11307D09847024B984710BD0D2200006D0700009A
S11307E070B50E4B1B78002B17D00D4B1B681A6885
S11307F01279002A11D00024094D06E00134E4B234
S11308002B681A681279A24207D95B68A200D358F0
S11308101B69002BF2D09847F0E770BD240100203B
S113082028010020F8B5B34B00229A811A615A615D
S11308301B785AB2002A13DB60221A4200D1D2E09C
S1130840AC4B1A781F231340012B00D188E1A94B2C
S11308501A781F2313400020022B00D1D9E1F8BDE0
S1130860A44AD2880020002AF9D060211942E7D195
S11308701F210B4008D19F494978062923D0082914
S113088000D17FE0002917D0012B00D182E0022B98
S1130890D6D1984B5B780020002B00D026E1022AA9
S11308A0D5D1944B1879944B9847944B18800221D6
S11308B01800934B9847F8E0022AC8D102319148B6
S11308C08F4B9847F1E08B4B5A88130A022B23D0A5
S11308D0D9B202290FD9032B34D00F2B00D096E1C3
S11308E0894B98680028B2D08378C17809021943EB
S11308F0834B984707E0012B00D088E1824B1868AE
S113090001787F4B98477B4BDA889B89934200D8C8
S1130910CBE0784B9A81C8E0D2B27B4B1B685B7CFE
S1130920934200D893E7784B5B68D200D058837821
S1130930C17809021943724B98476E4B9B68022297
S11309405A70E0E7FF231A40012A19D0002A12D076
S1130950022A00D074E76D4A6D498B1C1631107859
S11309601880013202338B42F9D169481621017093
S1130970634B9847C7E704216648614B9847C2E731
S1130980654AE9E7012A00D061E7012163485C4B2D
S113099098478AE0574949780A2900D077E7012A1D
S11309A000D0DDE05D4B1B78002B00D1D8E0514B2B
S11309B01C795B4B1D682B681B79A34200D8CFE0E0
S11309C000212000574B9847002800D138E76B6876
S11309D0A400E358DB689847534B187001211800B2
S11309E0474B984761E01F22134072D1414A527825
S11309F0032A5CD0D1B203293BD9052A4DD0092A58
S1130A0067D13C4BDB88002B00D020E7474B98474D
S1130A10002800D114E7374B9A783B4B1B685B7C6A
S1130A209A4200DD0CE7424B9847324B9B783B4A95
S1130A301370002B39D03F4A94466344DB00324A9A
S1130A405268D318364A13601B681B79002B2CD0CC
S1130A500024394D160000212000A847002800D1A9
S1130A60EEE60134E4B233681B681B79A342F2D882
S1130A701BE0012A2DD11F4BDB88002B00D0E6E6BA
S1130A801C4B5B88012B00D0E1E61E4A138802212F
S1130A908B431380294B984707E0164BDB88002BC8
S1130AA000D0D4E6264A134B1A610120D7E6114B35
S1130AB0DB88002B00D0CAE60E4B5B880020012B9C
S1130AC014D1104A138802210B4313801D4B9847FD
S1130AD0EBE7012B38D0022B00D0B1E6054B5B7855
S1130AE0012B73D0032B00D17FE00020002800D01D
S1130AF0B5E6A5E63C030020411D00001E010020D0
S1130B00C12000001C01002054000020D40000205B
S1130B10AC000020C4000020C800002024010020F4
S1130B20280100201D06000020010020B120000043
S1130B306D070000FFFFFF1FFD060000F12F0000FE
S1130B4005060000E52F0000464A52780B2AC2D160
S1130B50444BDB88002B03D1434B1B78002B27D15C
S1130B60414B1B780020002B00D178E63D4B1C79CB
S1130B703E4B1D682B681B79A34200D86FE6002109
S1130B8020003B4B9847002800D160E66B68A20028
S1130B90D558EB68984701002000354B984700284A
S1130BA000D154E6AB689847002800D057E64EE6DB
S1130BB02C4B1D795C8828002E4B9847002800D1C7
S1130BC03EE6E1B228002C4B98478FE7254BDB88A3
S1130BD0002B00D03BE6234B5B88002B00D036E68D
S1130BE0204B1879254B984780E71E4BDB88002B58
S1130BF000D02CE61B4B5B88002B00D027E6194C59
S1130C0020791F4B984720791E4B98476EE70020A8
S1130C106CE7154B1B78002B00D120E6134B1B68A7
S1130C201A681279002A1AD00025114E0F4F5B68FA
S1130C30AA00D458E368984701002800B047002868
S1130C4000D10CE6A3689847002800D007E60135D8
S1130C50EDB23B681A681279AA42E8D8FFE5002091
S1130C60FDE5C0463C0300202401002028010020AB
S1130C701D06000091060000FD060000851E000010
S1130C80951B0000551D00000C4B1B68002B06D162
S1130C90EFF31083002B07D00022094B1A70074A88
S1130CA0136801331360704772B6BFF35F8F00227D
S1130CB0044B1A700132024B1A70F0E73001002025
S1130CC034010020DF000020084B1A68013A1A6042
S1130CD01B68002B09D1064B1B78002B05D0012281
S1130CE0044B1A70BFF35F8F62B670473001002067
S1130CF034010020DF000020F0B5C64600B582B004
S1130D0001AC012767700026A6702770210010200F
S1130D10184DA847184B984680235B0242469361BE
S1130D2021001720A84780231B04424653612670E4
S1130D30677021000E20A847667021000520A8478F
S1130D4021000820A84721000620A84721000720E9
S1130D50A84721000220A84721000320A84721001A
S1130D600920A84721000420A84702B004BC9046EB
S1130D70F0BDC046550E00000044004170B500228D
S1130D80104B1A70002310491F25104E0D4C0AE019
S1130D900D4908E023780133DBB223700F2B10D800
S1130DA000211F2BF4D92800184001228240086931
S1130DB01042EFD00A619B009B59002BEAD0984760
S1130DC0E8E770BDC501002000180040C8010020FC
S1130DD0044A137802210B43137053785BB2002B3F
S1130DE0FBDB70470018004000B583B0124A9369DA
S1130DF040210B43936101A900230B7005200F4B85
S1130E00984705200E4B98470E4A137801210B434F
S1130E10137053785BB2002BFBDB0B4B1900403192
S1130E20002204C39942FCD11022084B1A60084BDB
S1130E30984703B000BDC04600040040C113000041
S1130E403513000000180040C801002000E100E054
S1130E50D10D000000B583B001AB80221A700A786E
S1130E605A704A789A708A78DA701900014B984758
S1130E7003B000BDB914000010B5082803D88000E1
S1130E801C4B1B589F46002032E01B4B18692FE077
S1130E901A4B1B6A9B059B0F1948D84028E0164B38
S1130EA0586925E0144B1B6800209B0720D5134983
S1130EB01022CB681A42FCD00F4B1A68242313402B
S1130EC0042B01D00F4813E000200F4B98470A4B26
S1130ED09B681B041B0C58430AE05023074AD35C4D
S1130EE000205B0704D5044BD86801E08020000291
S1130EF010BDC046A03300003801002000080040A7
S1130F0000127A00006CDC02DD13000070B50C499D
S1130F100B6A0478857840780122104080014026CD
S1130F20B34303432A40D201802083431343032263
S1130F30224012020348034013430B6270BDC046B3
S1130F4000080040FFFCFFFF10B5037A9B061B0C52
S1130F5042899205920D134318494B608379C279F3
S1130F60134342888488224313434278D2011343B3
S1130F700B600378042B11D0202B0ED1037B9B062E
S1130F80028A1343C28912040D490A4013430B4ACF
S1130F90936011680B4B0B43136010BD037B9B06DE
S1130FA0028A1343C289120405490A401343034ABF
S1130FB09360136804210B431360EEE738010020AB
S1130FC00000FF0324040000082803D88000254BF8
S1130FD01B589F46172044E0234A136A02210B43FF
S1130FE0136200203DE0204A936902210B43936180
S1130FF0002036E01C4A138A02210B43138200208E
S11310002FE0194A938A02210B439382002028E09F
S113101016490B68022213430B60134B9A84190080
S11310200E32CB681A42FCD0104A91680E4BD9623A
S113103052689A6200229A8419001032CB681A42CC
S1131040FCD00A4B1B689BB2074A9384002008E03B
S1131050054944228B5C022003438B54002000E0AA
S113106000207047C433000000080040380100200D
S113107070B58AB0C222D200364B9A60364A5368A1
S11310801E218B431A390B435360012201AB1A70A2
S11310900024324DE0B201A9A8470134182CF9D13B
S11310A005AB0022002159809A71DA712031197040
S11310B05A702B4B1B689B0E3F2B49D005A803721B
S11310C0072303730333C381264B4381FF3B838090
S11310D0254B0382254B984704A80024447001261D
S11310E086700470224B98470620224DA847224B55
S11310F0984701A94E604C7006230B700C724C7219
S113110003201E4B984703201D4B98470720A847F0
S113111010491022CB681A42FCD00E4A938C8021CD
S11311200B439384174A0023137253729372D3723E
S113113001A901224A604B704B7207330B700A728B
S113114000200E4B984700200D4B98470AB070BD05
S1131150203BB3E70008004000400041C1130000F9
S113116024608000FF01000080BBFFFF490F0000E6
S11311700D0F0000C90F000089110000AD1100001F
S11311806512000000040040064A936908210B43DD
S113119093610122044B1A7019000B781342FCD19D
S11311A07047C04600040040000C004070B50600C3
S11311B004000D782D0205434B78002B02D08023C8
S11311C0DB021D434B7A002B02D080231B031D43FB
S11311D04868012810D9431E184234D1022830D956
S11311E00223002201325B009842FBD812023243F0
S11311F0140080235B031D430B7A002B02D0802351
S11312009B031D43134A53785BB2002BFBDB124B49
S11312109847124B1E700F4A53785BB2002BFBDBCE
S11312200C4B9C601A0053785BB2002BFBDB094A21
S11312305368802149020B401D435560084B984771
S113124070BD0022D2E70402344380239B021D4375
S1131250D2E7C046000C0040890C0000080C004096
S1131260C90C000010B504000B4A53785BB2002B84
S1131270FBDB0A4B98470A4B1C70074A53785BB256
S1131280002BFBDB044A516880235B020B43536051
S1131290044B984710BDC046000C0040890C000068
S11312A0040C0040C90C000070B504001A4A5378BD
S11312B05BB2002BFBDB194B9847194B1C70164A89
S11312C053785BB2002BFBDB134E7068C004C00E76
S11312D0144B98470500124B1C707668F602F60F03
S11312E0114B1C700C4A53785BB2002BFBDB0A4B8E
S11312F09C682402240C0D4B9847002E07D1012C26
S113130007D9210028000A4B9847050001E0013461
S1131310E540280070BDC046000C0040890C000068
S1131320040C0040790E0000080C0040C90C0000B9
S11313304930000010B50400064B9847064B1C705A
S1131340064A53888021C9010B435380044B9847B4
S113135010BDC046890C0000020C0040000C004087
S1131360C90C000010B504000F4B98470F4B1C70BC
S11313700F4A53881B05180F53880E490B4053809E
S113138053880D490B40538011008022D2014B88B1
S11313901342FCD106494A8803020648024013431B
S11313A04B80064B984710BD890C0000020C00408E
S11313B0000C0040FFF0FFFFFFBFFFFFC90C00005F
S11313C010B50C7824020443024B9847A4B2024B94
S11313D05C8010BD65130000000C004010B50400D3
S11313E0064B9847064B1C70064B5C882405240F5B
S11313F0054B98472000054B984710BD890C000009
S1131400020C0040000C0040C90C0000A9120000AE
S113141030B5D378002B35D11378802B29D01B0617
S113142080246402234354780225AC4306D1947883
S1131430002C20D18024A402234341605478013C31
S1131440012C1CD90D042D0CA024E4052C431C43B1
S113145084620D0CD02424062C431C438462D4786B
S1131460002C22D15B031CD59378012B1ED0416143
S113147017E00023D7E7C024E4022343DDE70D4C43
S11314802340DFE741600C04240CA023DB05234345
S113149083620C0CD0231B0623438362D378002B76
S11314A003D15378013B012B02D930BD8161F8E7A8
S11314B08160FAE7FFFFFBFF10B50A00C1090023B2
S11314C0002904D14309DB0105498C4663441F24E8
S11314D02040012181401800024B984710BDC046AE
S11314E000440041111400007047000010B5054B82
S11314F09847054B9847054B9847054B9847054B2C
S1131500984710BD71100000F90C0000E9140000A8
S1131510E90D0000E914000010B584B003AB00220B
S11315201A7003325A70013A9A70013ADA70274BF2
S11315301B78834207D0002807D1244B1B78002B4B
S113154023D1224B187004B010BD03AB1B5C204A9E
S1131550D25CFF2A00D1FEE7EFF3108251424A41E8
S1131560019272B6BFF35F8F00211A4A1170019C79
S11315701749CA5C0132CA54002CDED00122154B33
S11315801A70BFF35F8F62B6D7E703AAD35C104A21
S1131590D25C002A00D1FEE7EFF3108251424A41A7
S11315A0029272B6BFF35F8F00210A4A1170029C47
S11315B00749CA5C013ACA54002CC2D00122054B27
S11315C01A70BFF35F8F62B6BBE7C046A801002064
S11315D0C0010020DF00002043060BD00F2303408E
S11315E05B00C00918180238830018188000024BE9
S11315F0181870470020FCE758010020F0B5D646C3
S11316004F464646C0B589468D796BB2002B26DB22
S113161028005E4B984704000F272F40038A984602
S11316204B461B889A46837C5B076AD4E368534421
S11316301E00E360A3689E4200D874E0E360A37CCC
S113164001229343A3742368002B03D0E1682A008A
S1131650002098471CBC90469946A246F0BD28003D
S11316604A4B984704000F272F40038A98464B465D
S11316705E88C3689C466644C66081688E4225D0F5
S11316808D1BADB2424B9D4206D91D004146180048
S1131690404B98476D1AADB2A27C0023920707D540
S11316A0414628003C4B984789B24B424B41DBB240
S11316B05B00A27C02218A431343A37462689219DB
S11316C02B0039003548364CA047C3E7837C9B0781
S11316D00BD4837C0122934383740368002BB9D019
S11316E02A00310000209847B4E7837C0222934308
S11316F0837442689219002339002848284CA04773
S1131700A8E74368C268944663441E004146806863
S1131710214B98470A007B1E9B012249591830002F
S1131720214B984782E74A469288524500D086E783
S11317309E4200D183E79B1B9DB2154B9D4216D957
S11317401D0041461800134B98476B1A9BB29845ED
S113175014D9A37C04221343A3747A1E9201114B5F
S1131760D218434639000D48104CA04772E7414651
S11317702800094B98476B1A9BB2E8E762689219F4
S113178039000648094CA04764E7C046D915000053
S1131790FF1F00002933000055310000880200209B
S11317A015280000080200207D330000692800008D
S11317B010B50522054B1A70054C80212000054BFD
S11317C0984700212000044B984710BD5601002083
S11317D088020020692700008F27000070B5084C9C
S11317E006212000074DA84704212000A847022114
S11317F02000054B98470220044B984770BDC04613
S113180088020020B1220000912200001915000076
S113181070B5134B9B8C9B061CD41149D022CB680A
S11318201340D02BFBD10F4C022120000E4B9847C4
S1131830042120000D4DA8470D4A062120000D4B20
S1131840984706212000A84703200B4B98470B4BD1
S1131850984770BD02491022CB681A42FCD0E2E7D7
S11318600008004088020020B122000091220000FC
S1131870DD1700007122000019150000B52F0000CB
S113188070B582B004001E4B98478023226893727F
S113189001AD28001B4B984700266E7029002000DC
S11318A0194B984719492000194B9847194B0222A4
S11318B000212000184DA847184B002200212000C9
S11318C0A847174B012200212000A847022200212B
S11318D02000144DA847002200212000A84701221F
S11318E000212000A84721680B890F4A1A40802351
S11318F0DB0013430B810D4B1E7002B070BDC0465C
S11319006D070000B5240000C52400005403002026
S1131910B9280000691A0000CD220000851D0000CE
S11319206D19000015230000FFF3FFFF560100208E
S113193010B50322074B1A70074C08492000084BC6
S11319409847084B9A68002300212000064CA047C2
S113195010BDC04656010020880200205403002018
S1131960B92800003C0300201528000010B589792F
S11319704BB2002B06DB0E4B1B78022B0FD0032B34
S113198011D010BD0A4B1B78012B05D0042BF8D1C4
S11319900848094B9847F4E7084B9847F1E70422B5
S11319A0034B1A70EDE70348034B9847E9E7C04639
S11319B05601002088020020692700003119000028
S11319C070B5204B1B88204A9489E41AA4B2002CD9
S11319D018D11E4A11885B189BB213801A4AD28808
S11319E09A4223D01A4B1B78002B1FD1164B5B69EC
S11319F0002B23D09847002820D00022114B1A80B6
S1131A00114B9C89072C19D90022114B1A700824F8
S1131A100C4D2B880C4A9268D218230000210D48E3
S1131A200D4EB0472B88E4182C8070BD04220B4B5C
S1131A301A700B4907480B4B9847F6E70122044BF1
S1131A401A70E5E7520100203C03002054010020F5
S1131A5050010020880200201528000056010020B3
S1131A6054030020B928000010B50C002C4B1B783F
S1131A70002B07D02B4B1B69002B00D0984700226A
S1131A80274B1A702388082B02D0274B984710BD88
S1131A90244A264B1978117059785170D87800026D
S1131AA09978091851805879000219790918918098
S1131AB0D97909029B795B18D3801D4B984700287C
S1131AC016D0184B1B787F2B15D8164BDB88002BB0
S1131AD022D00023174A1380174A13800122104B87
S1131AE01A700823114A00211448154CA047CEE768
S1131AF00D4B9847CBE700230E4A13800E4A138000
S1131B000222074B1A700823084A00210B480C4C88
S1131B10A0470C4B9847BAE70B4B9847B7E7C0462A
S1131B20560100203C030020B1170000540300209C
S1131B3025080000540100205201002088020020E2
S1131B4069280000C11900003119000010B5024BCA
S1131B509847024B984710BDE1070000C12F0000D1
S1131B6010B5074C04212000064B984702212000A1
S1131B70054B98470120054B9847054B984710BDE6
S1131B8088020020B12200009122000019150000F3
S1131B90A92F000010B5040001000A480A4B984719
S1131BA020000A4B9847837CDB070AD5837C0122FB
S1131BB0934383740368002B03D0C168220001207F
S1131BC0984710BD8802002009270000D91500009D
S1131BD0024B1B68188A8004400D7047880200205D
S1131BE070B582B0040001AD28000D4B9847200069
S1131BF00C4B98472C700023EB700B4E29003000DF
S1131C000A4B98470F21214000223000084B984787
S1131C10002221003000074B984702B070BDC04637
S1131C20B5240000951B000088020020C524000094
S1131C30F1220000E5230000F0B583B005000F0099
S1131C40140001AE3000364B98473570082C13D879
S1131C50002201AB5A702800324B984704820321BA
S1131C603940012938D0022943D0002303293DD12A
S1131C70042201ABDA7032E0102C03D8012201AB4C
S1131C805A70E8E7202C03D8022201AB5A70E2E72D
S1131C90402C03D8032201AB5A70DCE7802C03D814
S1131CA0042201AB5A70D6E780235B009C4203D820
S1131CB0052201AB5A70CEE780239B009C4203D8D7
S1131CC0062201AB5A70C6E7174A002394420DD886
S1131CD0072201AB5A70BEE7022201ABDA7001A9F8
S1131CE01248134B98470023002806D0180003B06D
S1131CF0F0BD032201ABDA70F1E70F2129400B4C50
S1131D000C4B002220000C4EB0470022290020007A
S1131D100A4EB047012229002000B0470123E5E71D
S1131D20B5240000D9150000FF030000880200203C
S1131D30C5240000FD150000CD220000152300007D
S1131D4010B501000148024B984710BD88020020DD
S1131D503F27000010B504000F2303400020022B8E
S1131D6000D910BD21000448044B98472000044BBF
S1131D7098470120F5E7C046880200206927000043
S1131D80951B000070B5344B1B78012B0AD0022B35
S1131D905FD0324B1B69002B00D0984700222E4B9A
S1131DA01A7070BD0D882D4B9B892D4A14886219B9
S1131DB0934201DA1D1BADB2284B986800192A0022
S1131DC02849294B98476419A4B2254B1C80082D37
S1131DD00AD0224B9C815B69002B02D098470028D3
S1131DE014D0224B9847DCE71C4BDA88204B1B8825
S1131DF01B199A42EDDD194B9B89A3420CD0082391
S1131E00184A00211B481C4CA047CAE70522124B64
S1131E101A701A4B9847C4E7104B5B69002B0BD020
S1131E20984700280FD012490D4A0B8810881B18B8
S1131E300B8000231380E2E70522074B1A70002071
S1131E400E4B9847ADE70522034B1A700B4B98478E
S1131E50A7E70B4B9847A4E7560100203C0300205A
S1131E6052010020540300207D330000311900008A
S1131E70540100208802002069280000551D00003C
S1131E80C119000070B504000F2303400020022B89
S1131E9000D970BD2000094B98470500210008486F
S1131EA0084B9847AB7C0120DB07F2D5AB7C0122C1
S1131EB09343AB742B6898470120EAE7D9150000D7
S1131EC0880200208F270000F0B587B00500039139
S1131ED0029201930F2606400024022E02D920000C
S1131EE007B0F0BD644B9847041E00D0BDE0280045
S1131EF0624B98470700EFF310835A42534105930E
S1131F0072B6BFF35F8F00225D4B1A70059A837C13
S1131F10DB0708D5002AE2D00122594B1A70BFF31F
S1131F205F8F62B6DBE7837C01210B438374002A55
S1131F3005D00122524B1A70BFF35F8F62B6029B29
S1131F407B60019BBB600023FB600C9B3B60012317
S1131F50039A13405A00BB7C02218B43134304228F
S1131F609343BB746BB2002B20DB019B002B6FD01F
S1131F709CB2444B9C425AD9398A1C001800424BEB
S1131F809847631A9AB23B8A9A4257D2BA7C042180
S1131F900A43BA74721E92013C49521831003C48FB
S1131FA03C4CA04744424441E4B298E7019B002BD7
S1131FB027D09DB2334B9D4206D9398A1D001800A3
S1131FC0314B98476B1A9DB2BB7C9B0707D5398A66
S1131FD02800314B984789B24C424C41E4B201206D
S1131FE020404000BC7C02239C430443BC742B006F
S1131FF0029A31002648294CA04744424441E4B2A5
S11320006DE7BB7C9B0705D5BB7C02229343BB7465
S11320100025ECE7BB7C01229343BB740C9B002B93
S113202025D02A00002100209847012457E7398A47
S11320302000194B9847631A9AB2A4E71300029A36
S113204031001348134CA04744424441E4B246E7EC
S1132050BB7C01229343BB740C9B002B09D02A0048
S1132060002100209847012439E7002437E70124A0
S113207035E7012433E7C046411D0000D9150000AF
S1132080DF000020FF1F00002933000008020020A9
S1132090880200206928000055310000152800003E
S11320A0024B1B68802210439872704788020020FC
S11320B0024B1B68987A4006400E70478802002045
S11320C0014B9860998170473C03002010B5054B83
S11320D01A68138901210B4313810120024B98478D
S11320E010BDC046880200201915000070B50320F9
S11320F0164B9847164C2268138901218B43138190
S1132100144A03312000144EB047144A0021200021
S1132110B047134A01212000B047124A022120008F
S1132120B04704212000104DA84700212000A847F3
S113213001212000A84702212000A8470B4A0621BC
S11321402000B04706212000A84770BD19150000E3
S113215088020020611B0000712200004D1B00005A
S1132160811800001118000091220000DD17000002
S113217070B582B0EFF310835A425341009372B6A4
S1132180BFF35F8F0026184B1E70009C01AD280022
S1132190164B9847AE70164E2A0016493000164B5F
S11321A098473000154B9847154B9B8C9B0614D4CD
S11321B01349D022CB681340D02BFBD10120114B03
S11321C09847114B9847002C05D00122064B1A70F2
S11321D0BFF35F8F62B602B070BD09491022CB68AD
S11321E01A42FCD0EAE7C046DF000020C52B0000FD
S11321F08802002000500041D52B0000E92800008F
S11322000008004019150000ED20000010B582B050
S11322100E4B984700200E4B9847EFF310835A4219
S11322205341019372B6BFF35F8F0022094B1A70BA
S1132230019C094B9847002C05D00122054B1A70CC
S1132240BFF35F8F62B602B010BDC046CD20000060
S113225019150000DF0000205D220000034B1B78ED
S1132260002B02D00022014B1A707047A9010020F4
S113227010B58B00C3185A60A0224900835A034C3E
S1132280095B0B438352002010BDC046FC330000A1
S11322904900064BCB5A02689383A221425A1A433F
S11322A042520268138300207047C046FC3300008A
S11322B04900054BCA5AA221435A93434352036827
S11322C09A8200207047C046FC33000010B58C0091
S11322D0A4180834A40023504018A43003780349F8
S11322E08A5C13430370002010BDC0460C34000008
S11322F010B58B009B1808339B0000241C50401819
S1132300A430034B9A5C037893430370002010BD00
S11323100C34000070B50F230B40C418AC3425787E
S11323202F4EB65C35432570002A29D1002B12D1DB
S113233003250A24FF3406683555032A09D149B216
S1132340002944DB02685B01D3180A33FF332022DF
S11323501A70002070BD4CB2002C08DB5C010568CB
S1132360AC4664440A34FF3401252570E5E75C017A
S11323700568AC4664440A34FF3402252570DCE762
S1132380012A1AD1002B05D102680C210A23FF333C
S1132390D154DEE749B2002907DB02685B01D31898
S11323A00A33FF3304221A70D3E702685B01D3189F
S11323B00A33FF3308221A70CBE7022ABDD1026820
S11323C05B01D3180A33FF3310221A70C1E7026885
S11323D05B01D3180A33FF3340221A70B9E7C046B1
S11323E00C34000070B50F230B40C418AC34304DCE
S11323F0AE5C2578B5432570002A29D1002B12D173
S113240003258424640006683555032A09D149B29A
S1132410002944DB02685B01D3180933FF3320220F
S11324201A70002070BD4CB2002C08DB5C010568FA
S1132430AC4664440934FF3401252570E5E75C01AA
S11324400568AC4664440934FF3402252570DCE792
S1132450012A1AD1002B05D102680C210933FF335C
S1132460D154DEE749B2002907DB02685B01D318C7
S11324700933FF3304221A70D3E702685B01D318CF
S11324800933FF3308221A70CBE7022ABDD1026850
S11324905B01D3180933FF3310221A70C1E70268B5
S11324A05B01D3180933FF3340221A70B9E7C046E1
S11324B00C34000000230370437083700133C37035
S11324C070470000F0B50C780F23234064B2CA783B
S11324D0042A70D89200894DAA5897460268083396
S11324E05B0100219954002282E05C010268944659
S11324F0644480225200A55CE43A6D0778D1E4324A
S1132500A65C7025E43A2E4272D15F3DE432A554B4
S11325101A00083252010468A4182F356571006846
S11325208218802010718A78002A1FD05801744ABA
S113253012185468802000060443546054692043F0
S1132540506107254C785A016D4B9B1858682C40F4
S113255024076C4E30402043586049785A6929401A
S1132560090732400A435A61002241E05801644A93
S113257012185068400040085060506940004008FC
S11325805061DEE7002C35DB5D010268944665444A
S113259080225200AE5CE43A760729D18026760088
S11325A0AA5D02273A43AA55026818000830400180
S11325B0121840205071E20F4F785D00AD182D01C4
S11325C04F4E7519686807243C4024074D4E30402F
S11325D0204368608978002900D088E05B009B185C
S11325E01B01474AD3185A68520052085A60002205
S11325F01000F0BD5D0102689446654480225200DB
S1132600AF5C7026E43A3742F2D19036AA5D2027B7
S11326103A43AA5502681800083040011218802075
S11326201071C8E7002C17DB5D010268944665440D
S113263080225200AE5CE43A7607D9D18026760037
S1132640AA5D03273A43AA550268180008304001DE
S1132650121840205071AEE75D010268944665444B
S113266080225200AF5C7026E43A3742C0D19036E3
S1132670AA5D30273A43AA55026818000830400181
S113268012188020107196E7002C17DB5D01026898
S11326909446654480225200AE5CE43A7607A7D1A2
S11326A080267600AA5D04273A43AA5502681800DA
S11326B0083040011218402050717CE75D01026827
S11326C09446654480225200AF5C7026E43A374257
S11326D000D08DE79036AA5D40273A43AA55026898
S11326E018000830400112188020107163E76968EF
S11326F080231B060B436B60002279E7E83300005C
S11327005C030020FFFFFF8F0F230B4049B2002919
S11327100ADB08335B010268D21840215171026858
S1132720D3180122DA71704708335B010268D218AA
S1132730802111710268D3180222DA71F3E70F23A2
S11327400B4049B2002907DB026808335B01D31848
S11327509879C006C00F7047026808335B01D3182C
S113276098798006C00FF6E70F230B4049B2002981
S113277006DB026808335B01D31810225A717047D4
S1132780026808335B01D31820225A71F7E730B589
S11327900F230B4049B200291DDB5901026852186E
S11327A083246400145DE40614D510258224640097
S11327B01555026852180821FF31515C890609D564
S11327C0E43C0821FF315454026808335B01D318F8
S11327D001221A7130BD5901026852188324640021
S11327E0145DA406F6D520258224640015550268DC
S11327F052180821FF31515C4906EBD5C43C08212D
S1132800FF315454026808335B01D31802221A7151
S1132810E0E7000030B50C00083464010568645D2D
S11328206406640F1C25002C01D1280030BD4C0126
S11328300B4D2D192C002A616A690A4D2A406261E8
S113284062699B049B0C920B9203134363610368BC
S113285008314901591880234B710025E5E7C0462A
S11328605C030020FF3F00F030B50C000834640125
S11328700568645D64071C25002C01D1280030BD67
S11328800B4C4D012A51621954689B041B09094DD4
S11328902C402343536053689B0B9B035360036892
S11328A008314901591840230B710025E6E7C04659
S11328B05C030020FF3F00F0094B19605A68094986
S11328C01140802292020A435A605A68920B920382
S11328D05A600268402182235B00D1540020704773
S11328E05C030020FF3F00F00268137802210B43D1
S11328F0137002689378022BFCD07047F0B5DE4663
S113290057464E464546E0B583B0A94B186806685D
S11329103378DB0906D003B03CBC90469946A24606
S1132920AB46F0BD378CBFB2002F2ED1B68BB6B2FA
S1132930A233C35AA022855A1D40354000249D4F1E
S11329409B4B994698460BE0A30042461268944676
S113295063445B689849604698470134072CDAD091
S11329606300DB5B334203D04A46126812689383E8
S11329702B42F2D0062CE7D1904B1B891B098022F5
S1132980520013408C4A1360DEE70500A43500238F
S1132990012294465F329146503A92460D3A93464C
S11329A08046AEE00200404690465B01F6180823DC
S11329B0FF33F35C5B0613D540220823FF33F25444
S11329C0883BFF3B424613437D4A937160230B428D
S11329D0A1D0019B1B01C318DB6A794998479AE788
S11329E00823FF33F35C9B06F0D520220823FF3332
S11329F0F254734B42469A71E8E74046019A130039
S1132A0008335B01F6181023F3718318AC331B7879
S1132A10DB0600D47FE714005201684B9B185B6807
S1132A209B049B0C66490B802301C3189B6A98473F
S1132A3071E70200404690465B01F6180823FF3315
S1132A40F35C9B071CD502220823FF33F2545C4C31
S1132A50883BFF3B42461343A371019B5A01574BEA
S1132A609B1810335B689B049B0C63808B0700D11D
S1132A7051E7019B02331B011B58514998474AE710
S1132A800823FF33F35CDB07F0D501220823FF336F
S1132A90F2544B4C4346A371019B5B01474AD21845
S1132AA053689B049B0C238053681B019B0CA380DD
S1132AB0DCE70822FF329A5C52076DD50424082211
S1132AC0FF329C54019C62013C4B9B189B7A9B07F0
S1132AD005D53A4B9B189A7A0224A2439A72384B32
S1132AE042469A71019B08335B0102689446634431
S1132AF0DB79DB0750D50EE701330135082B00D114
S1132B0009E7D8B201933A001A4161461142F3D061
S1132B101A0008325201B218D279D2B2297A11407D
S1132B202C7821404C46144200D03BE754461442D2
S1132B3000D062E75C46144200D07AE70C241442C9
S1132B40DAD00200404690465B01F3180822FF32B7
S1132B509A5C1207ADD5043C0822FF329C54019CB8
S1132B606201164B9B189B7E9B0705D5134B9B1844
S1132B709A7E0224A2439A7680235B424246134300
S1132B800F4A9371019B08335B01026894466344C6
S1132B90DB799B0700D5BEE60C230B4200D1BAE6D5
S1132BA0019B1B01C3185B6A05499847B3E6C046FD
S1132BB0AC010020FC330000B00100205C030020C5
S1132BC0B401002000220270012343708270C3709C
S1132BD070470000F0B5CE46474680B583B0050087
S1132BE00C001600594B18602960594AD3692021FA
S1132BF00B43D36101AF00237B700122BA70FB70D9
S1132C00063399463B7039001820524B9846984732
S1132C104B463B7039001920C047B3786A4613709D
S1132C20694606204C4B984706204C4B984723781E
S1132C30012213432370A378DB07FCD4484AD378DA
S1132C4003218B4302210B43D370D3780C218B4394
S1132C5008210B43D370434B1B689B03DB0E1F2BD4
S1132C6068D0228D9B0140490A40134323853D4B84
S1132C701B685B02DB0E1F2B5ED0228D1F218A4353
S1132C8013432385374B1B689B015B0F072B55D0E0
S1132C90228D1B0335490A4013432385327821785A
S1132CA0D2017F230B4013432370717823780122D0
S1132CB00A40920004218B43134323702C4B63621C
S1132CC0F378012B3CD0002B06D12A6813890C2100
S1132CD08B4304210B43138180225200002124489A
S1132CE0244B98472B1D29002031002204C38B421A
S1132CF0FCD12900A03100221A605A609A60DA607F
S1132D0010339942F8D10023A022AB520232AB52C5
S1132D102B00A433AC3500221A701A720133AB4273
S1132D20FAD18022144B1A60002003B00CBC9046E8
S1132D309946F0BD1A3B94E7023B9EE7043BA7E7A4
S1132D402A68138908318B431381C5E7AC0100203D
S1132D5000040040B9140000C11300003513000042
S1132D6000500041246080003FF8FFFFFF8FFFFF09
S1132D705C0300208F33000000E100E0FEE7000068
S1132D80F8B52A4A2A4B9A4211D01A00294B9A4282
S1132D900DD2294A03339B1A9B0801339B0000225E
S1132DA0234822498C58845004329A42FAD1234A47
S1132DB0234B9A420AD2D34321495B1803218B4304
S1132DC004339B18002102C29342FCD11D4AFF2107
S1132DD01D4B8B439360FD3990235B001B4AD150FC
S1132DE01B4AD3780325AB4302242343D370D378FF
S1132DF00C27BB4308263343D370164B987B3022F1
S1132E009043202210439873997BB94331439973BB
S1132E109A7BAA4322439A730F4A536880210B4337
S1132E2053600E4B98470E4B9847FEE73034000032
S1132E3000000020E000002004000020E00000204A
S1132E405C04002000ED00E0000000000070004180
S1132E50005000410048004100400041353300006B
S1132E60692E000070470000F0B5DE4657464E4616
S1132E704546E0B583B001213E4B1970BFF35F8F27
S1132E8062B63D4B00221A705A709A70DA7019714A
S1132E903A4B984703203A4B98470138394B9842AC
S1132EA00DD8394A50603948036A1B021B0AC021F5
S1132EB009060B430362002393600733136001A9DF
S1132EC001234B7000228A700B701620304B9847F8
S1132ED08022D2032F4B5A612F4B98472F4B984790
S1132EE02F4B9847234F0024261C234DB84601231B
S1132EF09C46BB46BA46254B99460EE01900013262
S1132F004B1CDBB210780028F8D0002B0FD14346BD
S1132F1062461A70BFF35F8F62B672B6BFF35F8FFB
S1132F203E702B78002BF2D12100134AE7E772B6EA
S1132F30BFF35F8F5B461C7002290BD9032912D0A3
S1132F40534662461A70BFF35F8F62B6BFF34F8F6A
S1132F5030BFE2E74B461B69042293434A461361A0
S1132F60104B5970ECE74B461B69042213434A4645
S1132F701361E5E7DF000020C0010020ED1400002C
S1132F80A9120000FFFFFF0010E000E000ED00E0E8
S1132F90550E000000440041ED000000FD0000005B
S1132FA0610700000004004010B5014B984710BDB4
S1132FB0FD00000010B5014B984710BD1101000041
S1132FC010B5054B1B78002B00D110BD034B98475F
S1132FD0034B9847F9E7C046BC010020D11B000011
S1132FE02101000010B5014B984710BD0D010000F0
S1132FF010B5014B984710BD0F0100000122024B90
S11330001A7001207047C046BC0100200022014B09
S11330101A707047BC01002010B50378AA2B00D0A9
S113302010BD4378552BFBD18378AA2BF8D1C378F4
S1133030552BF5D1024B9847024B9847F0E7C04611
S1133040CD070000FD000000002243088B4274D32A
S113305003098B425FD3030A8B4244D3030B8B4295
S113306028D3030C8B420DD3FF22090212BA030C9E
S11330708B4202D31212090265D0030B8B4219D37F
S113308000E0090AC30B8B4201D3CB03C01A52419F
S1133090830B8B4201D38B03C01A5241430B8B42E7
S11330A001D34B03C01A5241030B8B4201D30B03D0
S11330B0C01A5241C30A8B4201D3CB02C01A5241F7
S11330C0830A8B4201D38B02C01A5241430A8B42BA
S11330D001D34B02C01A5241030A8B4201D30B02A3
S11330E0C01A5241CDD2C3098B4201D3CB01C01ABD
S11330F0524183098B4201D38B01C01A52414309C7
S11331008B4201D34B01C01A524103098B4201D3B4
S11331100B01C01A5241C3088B4201D3CB00C01A21
S1133120524183088B4201D38B00C01A5241430899
S11331308B4201D34B00C01A5241411A00D20146BE
S1133140524110467047FFE701B5002000F0F0F847
S113315002BDC0460029F7D076E7704703460B430B
S11331607FD4002243088B4274D303098B425FD37C
S1133170030A8B4244D3030B8B4228D3030C8B42A8
S11331800DD3FF22090212BA030C8B4202D312128E
S1133190090265D0030B8B4219D300E0090AC30B63
S11331A08B4201D3CB03C01A5241830B8B4201D310
S11331B08B03C01A5241430B8B4201D34B03C01AF9
S11331C05241030B8B4201D30B03C01A5241C30A71
S11331D08B4201D3CB02C01A5241830A8B4201D3E2
S11331E08B02C01A5241430A8B4201D34B02C01ACC
S11331F05241030A8B4201D30B02C01A5241CDD271
S1133200C3098B4201D3CB01C01A524183098B42BB
S113321001D38B01C01A524143098B4201D34B01A4
S1133220C01A524103098B4201D30B01C01A524107
S1133230C3088B4201D3CB00C01A524183088B428E
S113324001D38B00C01A524143088B4201D34B0077
S1133250C01A5241411A00D20146524110467047E9
S11332605DE0CA0F00D04942031000D340425340EE
S113327000229C4603098B422DD3030A8B4212D3AE
S1133280FC22890112BA030A8B420CD389019211E0
S11332908B4208D3890192118B4204D389013AD01D
S11332A0921100E08909C3098B4201D3CB01C01AF2
S11332B0524183098B4201D38B01C01A5241430905
S11332C08B4201D34B01C01A524103098B4201D3F3
S11332D00B01C01A5241C3088B4201D3CB00C01A60
S11332E0524183088B4201D38B00C01A5241D9D278
S11332F043088B4201D34B00C01A5241411A00D2F9
S11333000146634652415B10104601D34042002BF4
S113331000D54942704763465B1000D3404201B573
S1133320002000F005F802BD0029F8D016E7704728
S11333307047C04670B500260C4D0D4C641BA4109C
S1133340A64209D1002600F063F80A4D0A4C641B1A
S1133350A410A64205D170BDB300EB5898470136BE
S1133360EEE7B300EB5898470136F2E71C3400004F
S11333701C3400001C34000020340000002310B56D
S11333809A4200D110BDCC5CC4540133F8E7030069
S11333908218934200D1704719700133F9E7000095
S11333A08A0E0000860E0000860E0000EC0E00005F
S11333B0EC0E00009E0E0000900E0000A40E000013
S11333C0DA0E0000F40F0000D40F0000D40F000048
S11333D060100000E60F000002100000D80F00008B
S11333E01010000050100000DC240000EA2400004B
S11333F0842500002426000088260000040008001C
S1133400700080000100000100020000030C106045
S1133410F8B5C046F8BC08BC9E467047B50000002D
S1133420F8B5C046F8BC08BC9E4670478D00000045
S11334300100000091030000ED030000F903000007
S1133440210300000000000005010904A101A100FE
S11334500509190129041500250175019504810246
S11334607504950181030501093915002507463BBB
S1133470016514750495018102750495018103C0E9
S1133480C000000094000020600000200000000044
S113349068000020A800002009022900010100A002
S11334A03209040000020300000009211101000197
S11334B022390007058103080004070502030800F8
S11334C00400000012010002000000081F0801E4CB
S11334D000010102000100000400002000030000BC
S11334E000000000000000000000000000000000D8
S11334F00000000004030904424D434465736967F6
S11335006E73000047616D65626F6950414400014C
S9030000FC
